:10000000E2EF05F00000000000EF00F0000000004B
:0A0010000000000000000000F3D71C
:10001C00240E0C6E1A0E0D6E0D2EFED70C2EFCD768
:04002C0000001200BE
:0E003000510E0D6E0D2EFED7000000001200C6
:0C003E00000000000000000000001200A4
:10004A000B840BAE30EF00F0010E036E026A016AF8
:0A005A00006A0A360232FF0E12009F
:080064000AAE029E000E12001C
:10006C0000017FBF02D0839601D083867FBD02D072
:10007C00839401D083847FBB02D0839201D083828E
:10008C007FB902D0839001D083805EB002D0838888
:10009C0001D08398838ACDDF839A7FB702D0839671
:1000AC0001D083867FB502D0839401D083847FB343
:1000BC0002D0839201D083827FB102D0839001D091
:1000CC0083805EB002D0838801D08398838AB1DFAD
:0E00DC00839A5EA002D09CDF01D0A4DF120048
:0E00EA00026A016A006A086A036A000E1200C8
:1000F8000B820BAE86EF00F00368026801680068A7
:080108000A360232FF0E12005C
:100110000C6A0E6A0250D8A4A1EF00F001C002F0F0
:1001200000C001F0006A0E860250D8A4A1EF00F0D2
:1001300001C002F0016A0E960E880250D8B4B3EFE7
:1001400000F00E50035ED8A4D8A0B8EF00F0D8900D
:1001500002BEBDEF00F0003601360236032EA8EFD6
:1001600000F0B8EF00F0010E0C6EBFDFC0EF00F042
:10017000020E0C6E6ADFC0EF00F0040E0C6E72DF30
:0201800012006B
:080182000B6A0B86FF0E120050
:10018A007BC004F07CC005F004C002F005C003F097
:10019A00044A052A7DC000F07EC001F000017D4BB3
:1001AA007E2B00C0E9FF01C0EAFF02C0E1FF03C0E5
:1001BA00E2FFEECFE6FF02C0E9FF03C0EAFFEE521C
:0E01CA0001E0E2D77BC000F07CC001F0120023
:1001D8000D6A086A0050D8B4000C04180A6E0ABEEA
:1001E8000D1E0B6A04AE02D0041E042A00AE02D013
:1001F800001E002A005004100A6E0ABE1FD00450C8
:10020800085E003600340836045008260036060E0C
:100218000C6E00340836045000B0085E00A00826B2
:1002280000360C2EF6D700A008260BB015D00DAE60
:10023800000C001E002A081E082A000C04AE09D073
:1002480000BE04D00050086E006AF1D7006A002A88
:10025800000C001E0B2AD3D7082A0450085CD8A427
:0E026800E6D7086A002A00AEE2D7FF0C1200AB
:0E027600230E0D6E0D2EFED7000000001200AC
:10028400086A096A000E07620364C7EF01F00250AE
:1002940006180A6E075003267E0ED8A058EF01F008
:1002A400035ED8B0CBEF01F05CEF01F0035ED8A0A1
:1002B400CFEF01F0028E068E02C00EF001C00BF0EB
:1002C40000C00DF000500402F4CF0CF00150050200
:1002D400F4CF00F0F3CF08F00402F3500C26F450EE
:1002E4000822000E00220D500502F3500C26F45093
:1002F4000822000E002202500402F3500826F45093
:10030400002202500502016A000E0122F350002669
:10031400F45001220D500602F3500826F450002236
:10032400026A000E012202220B500602F35000263C
:10033400F4500122000E02220E500602F350012650
:10034400F450022202BEAFEF01F008360036013647
:1003540002360306D8B4CFEF01F0C2EF01F0D88023
:10036400800E08640030000E002201220222D8A070
:10037400C2EF01F0023201320032034ACBEF01F046
:100384000AAE029E000ED1EF01F0010EACDED1EFF9
:1003940001F0020EAFDED1EF01F0040E54DE1200C4
:0C03A4005E907BC07FF060DE5E80120087
:1003B0000A6A0350D8A40A800750D8A40A820A50B7
:1003C000D8B43BEF02F0030AD8B4F4EF01F00AB05E
:1003D000EFEF01F006AE39EF02F037EF02F002AEB8
:1003E00037EF02F039EF02F00250800B0A6E029EE6
:1003F0000650800B069E0A18D8B405EF02F00A508A
:10040000D8B437EF02F039EF02F00750035CD8B4EC
:100410000FEF02F0D8A02BEF02F031EF02F0065000
:10042000025CD8B419EF02F0D8A02BEF02F031EF44
:1004300002F00550015CD8B423EF02F0D8A02BEFF6
:1004400002F031EF02F00450005CD8B43BEF02F050
:10045000D8B031EF02F00A52D8B439EF02F037EFDA
:1004600002F00A52D8B437EF02F039EF02F0D88028
:0E0470001200D8901200D880D884120012001A
:10047E00959A95989590959295949596839A83983A
:10048E008396839483928390C2DDC1DDC0DD838227
:10049E008380838ACDDD839ABADD838AC9DD839A10
:1004AE00B6DD838AC5DD839AB2DD8390838AC0DD93
:1004BE00839AADDD838ABCDD839A83928386838A99
:1004CE00B7DD839AA4DD83968380838AB1DD839A18
:1004DE008390838AADDD839A9ADD838AA9DD839A20
:1004EE008380838AA5DD839A92DD8390838AA0DD43
:1004FE00839A8386838483828380838A99DD839A19
:06050E0086DD5E80120094
:10051400FF0E0001656FFF0E666FFF0E676FFF0E23
:10052400686FC26A371C006E0050C116070EC012F5
:06053400C08EC28012001F
:10053A0010D0800E00016F6F1AD0C00E6F6F17D0E7
:10054A00940E6F6F14D0D40E6F6F11D0800E6F6F30
:10055A000ED000016F51010AECE06F51020AEDE082
:10056A006F51030AEDE06F51040AEDE0EFD7700511
:10057A00006E6F51002600C06FF000C07FF071DD81
:10058A005E905F6A5F507125E96E000E7221EA6E15
:10059A00EE520BE05F507125E96E000E7221EA6E91
:0E05AA00EECF7BF0FADE5F2AEDD75E80120006
:1005B8000900F5CFE6FF0006FBE10106F9E11200AC
:1005C8000450000A12E10550000A0FE10650000A23
:1005D8000CE10750000A09E1FF0E006EFF0E016EE4
:1005E8007F0E026EFF0E036EA4D0086A096A0750D8
:1005F800D8B48FEF03F00350D8B493EF03F0025050
:1006080006180A6E028E068E0E6A02C008F001C035
:100618000CF000C00DF004500D5E0550D8A0053C4C
:100628000C5E0650D8A0063C085E086A0C6A0D6A83
:10063800D8A026EF03F0D8900232013200320832F7
:10064800010E0E6E0750035ED8A033EF03F07E0E46
:100658000E240326D8B097EF03F039EF03F07E0E8F
:100668000E240326D8A09BEF03F0180E0B6E0D3650
:100678000C3608360036013602360E360450005E57
:100688000550D8A0053C015E0650D8A0063C025E85
:1006980006340E120EA054EF03F00D805FEF03F046
:1006A800045000260550D8B0053C01260650D8B0A5
:1006B800062802260D900B2E3BEF03F085EF03F082
:1006C800D8900036013602360E360450005E0550CA
:1006D800D8A0053C015E0650D8A0063C025E063450
:1006E8000E10010B0D26D8B00C2AD8B4082AD8A4AD
:1006F80085EF03F008320C320D32032AD8B497EF95
:1007080003F00AAE089E0850026E0C50016E0D50A0
:10071800006E9DEF03F0010E30DD9DEF03F0020E39
:10072800E0DC9DEF03F0040EE3DC9DEF03F0080E20
:0407380088DC120047
:10073C000001796B7A6B6FC075F070C076F071C088
:10074C0077F072C078F07851FF0A08E17751FF0A10
:10075C0005E17651FF0A02E17551FF0A0CE173C005
:10076C007BF074C07CF0380E7D6F000E7E6F07DD61
:10077C00030E006EEBD1010E5F6E77AF0ED0800EC4
:10078C007719006E00C077F05F2A73C0E1FF74C068
:10079C00E2FF2D0EE66E734B742B000E006E781973
:1007AC0008E10050771905E10050761902E1755106
:1007BC00000A0BE173C07BF074C07CF0350E7D6FCA
:1007CC00000E7E6FDCDC006AC1D17851FF0A08E1B3
:1007DC007751000A05E17651000A02E17551000AD1
:1007EC000CE173C07BF074C07CF0310E7D6F000E99
:1007FC007E6FC5DC5FC000F0A9D1000E046E000E48
:10080C00056E000E066E7F0E076E75C000F076C08A
:10081C0001F077C002F078C003F0C4DD010ED8B04F
:10082C00000E006E00521BE075C000F076C001F0A7
:10083C0077C002F078C003F0000E046E000E056E57
:10084C00200E066E820E076E17DD00C075F001C01B
:10085C0076F002C077F003C078F07A07CED7000E9E
:10086C00046E000E056E200E066E820E076E75C0AD
:10087C0000F076C001F077C002F078C003F092DD92
:10088C00000ED8B0010E006E00521BE075C000F0D7
:10089C0076C001F077C002F078C003F0CD0E046E84
:1008AC00CC0E056E4C0E066E7B0E076EE5DC00C0A2
:1008BC0075F001C076F002C077F003C078F07A2BA7
:1008CC00CED7FF0E7515086EFF0E7615096E7F0ECE
:1008DC0077150A6E000E78150B6E08C004F009C06F
:1008EC0005F00AC006F00BC007F00436049005367C
:1008FC0006360736000E7515006E000E7615016E65
:10090C00000E7715026EFF0E7815036E00C075F0A1
:10091C0001C076F002C077F003C078F00450751176
:10092C00006E05507611016E06507711026E07505D
:10093C007811036E00C075F001C076F002C077F03C
:10094C0003C078F07F0E785D006E00C060F0010E81
:10095C00786F00C004F075C000F076C001F077C06D
:10096C0002F078C003F0045007E000360090013626
:10097C0002360336FF0FF8D700C075F001C076F0D1
:10098C0002C077F003C078F073C0E1FF74C0E2FFDF
:10099C007851300FE66E734B742B800E7A19006E03
:1009AC00800E010A005C08E3800E060A006E800EC1
:1009BC007A19005C01E30AD073C0E1FF74C0E2FF56
:1009CC002E0EE66E734B742B010E796F060E606F54
:1009DC006051000A54E0786B75C000F076C001F0ED
:1009EC0077C002F078C003F0003600900136023672
:1009FC000336003600900136023603367551002658
:100A0C0076510122775102227851032200C075F0F1
:100A1C0001C076F002C077F003C078F075C000F02A
:100A2C0076C001F077C002F078C003F00036009079
:100A3C0001360236033600C075F001C076F002C0F4
:100A4C0077F003C078F073C0E1FF74C0E2FF785117
:100A5C00300FE66E734B742B7951000A0EE17A0756
:100A6C007A51000A0AE173C0E1FF74C0E2FF2E0E56
:100A7C00E66E734B742B010E796F6007A9D7FF0ECE
:100A8C007325E96EFF0E7421EA6EEE50300A05E113
:100A9C00010E735F000E745BF2D7FF0E7325E96EC7
:100AAC00FF0E7421EA6EEE502E0A04E1010E735F04
:100ABC00000E745B7A51000A43E073C0E1FF74C00E
:100ACC00E2FF650EE66E734B742B800E7A19006E86
:100ADC00800E000A005C0BE273C0E1FF74C0E2FF01
:100AEC002D0EE66E734B742B7A5100087A6F7AC018
:100AFC0060F0800E090A006E800E7A19005C0FE21D
:100B0C000A0E046E60C000F0ECEC00F073C0E1FF64
:100B1C0074C0E2FF0050300FE66E734B742B0A0E5C
:100B2C00046E60C000F0ECEC00F008C000F073C084
:100B3C00E1FF74C0E2FF0050300FE66E734B742B74
:0E0B4C0073C0E1FF74C0E2FFE66A006A1200A7
:100B5A00C26A371C006E0050C116070EC012C08E42
:100B6A005FC000F000360090003600900050C212BC
:100B7A00C2803BEC01F0C282C2A201D0FDD7C4CF31
:100B8A0001F0006AC3500012000E0112C290120056
:100B9A000050086E0150006E016A026A036A0B6A0D
:100BAA000C6A960E036E0A6A00C001F008C000F0D3
:0A0BBA00086A026A88EC00F01200DD
:100BC400DAEC06F080808082A3DC57DC010E7F6FB4
:100BD40036EC00F06F6B050E706F250E716F000E12
:100BE400726FA9DC190E0B6EF00E0C6E4D0E0D6EAD
:100BF4000D2EFED70C2EFCD70B2EFAD700000000CA
:100C0400010E7F6F36EC00F00C0E7F6F36EC00F0B7
:100C14005F6AA1DF00C02FF001C030F0010E5F6EEB
:100C24009ADF00C06DF001C06EF06DC02DF06EC093
:100C34002EF02FC000F030C001F0ADDF000E046EC6
:100C4400000E056E200E066E810E076E42EC01F05A
:100C5400000E046E000E056E000E066E890E076E01
:100C6400B1DC00C069F001C06AF002C06BF003C0DF
:100C74006CF069C061F06AC062F06BC063F06CC074
:100C840064F06DC000F06EC001F085DF000E046EEC
:100C9400000E056E200E066E810E076E42EC01F00A
:100CA400000E046E000E056E000E066E890E076EB1
:100CB40089DC00C05AF001C05BF002C05CF003C0E4
:100CC4005DF069C06FF06AC070F06BC071F06CC009
:100CD40072F04B0E0001736F000E746F2DDD5AC05D
:100CE4006FF05BC070F05CC071F05DC072F03C0EE0
:100CF400736F000E746F20DD010E6F6F010E706F45
:100D0400150E716F000E726F16DC010E6F6F050EFB
:100D1400706F4B0E716F000E726F0DDC010E6F6FF2
:100D2400100E706F230E716F000E726F04DC020ED2
:100D34006F6F010E706F1D0E716F000E726F9DEC60
:100D440002F0020E6F6F050E706F3C0E716F000E95
:100D5400726F9DEC02F0020E6F6F100E706F1B0E1F
:100D6400716F000E726F9DEC02F0080E0B6E7B0E1D
:100D74000C6EFC0E0D6E0D2EFED70C2EFCD70B2E1A
:080D8400FAD7000045D7FFD7A4
:100DB40010EE15F0270E006E010E016E8C0EF66E0D
:0E0DC4000D0EF76E000EF86EDCEC02F0120061
:060D8C00414E303A200048
:020D9200560009
:060D9400414E313A20003F
:020D9A00560001
:080D9C0048656C6C6F21210019
:020DA40000004D
:020DA60000004B
:040DA800494E46006A
:020DAC00300015
:010DAE003014
:040DAF004E614E0043
:020000040030CA
:0E000000000C1F1EFF8381FF0FC00FE00F409A
:00000001FF
